:020000040800F2
:10000000C84800209901000843360008F32A000878
:10001000413600081D040008953E0008000000005D
:1000200000000000000000000000000001010008C6
:100030004F0500080000000045010008653A00086F
:10004000B3010008B3010008B3010008B3010008C0
:10005000B3010008B3010008B3010008B3010008B0
:10006000B3010008B3010008B3010008B3010008A0
:10007000B3010008B3010008B3010008B301000890
:10008000B3010008B3010008B3010008B301000880
:10009000B3010008B3010008B3010008BB05000864
:1000A000B3010008B3010008B3010008B301000860
:1000B000B3010008B3010008113B0008B3010008B8
:1000C000B3010008B3010008B3010008B301000840
:1000D000B3010008B3010008B3010008B301000830
:1000E0009D050008B3010008B3010008DFF80CD03B
:1000F00000F0EEF8004800479F420008C848002082
:10010000224B19680868B0E8F00F80F30988BFF344
:100110006F8F4FF0000080F311884EF00D0E704786
:100120000000000006480068006880F3088862B696
:1001300061B6BFF34F8FBFF36F8F00DF00BF00BF0B
:1001400008ED00E0EFF30980BFF36F8F0F4B1A68E3
:1001500020E9F00F106008B54FF0500080F31188CF
:10016000BFF34F8FBFF36F8F05F002F94FF0000020
:1001700080F31188BDE8084019680868B0E8F00FFE
:1001800080F30988BFF36F8F704700BF1400002011
:10019000EFF3058070470000064880470648004797
:1001A000FEE7FEE7FEE7FEE7FEE7FEE7FEE7FEE727
:1001B000FEE7FEE70D3B0008ED0000082DE9F05FCB
:1001C0000546002092469B468846064681464024C6
:1001D0001BE0284641464746224600F020F8534699
:1001E0005A46C01A914110D311461846224600F0D3
:1001F00060F82D1A67EB01084F46224601200021C6
:1002000000F057F817EB00094E41201EA4F101043D
:10021000DFDC484631462A464346BDE8F09F202AA7
:1002200004DB203A21FA02F00021704721FA02F3A0
:10023000D040C2F12002914008431946704740EA7D
:1002400001039B0703D009E008C9121F08C0042A54
:10025000FAD203E011F8013B00F8013B521EF9D23B
:100260007047D2B201E000F8012B491EFBD2704763
:100270000022F6E710B513460A4604461946FFF772
:10028000F0FF204610BD30B50B460146002020226D
:10029000012409E021FA02F59D4205D303FA02F593
:1002A000491B04FA02F52844151EA2F10102F1DCF3
:1002B00030BD202A04DB203A00FA02F1002070470A
:1002C0009140C2F1200320FA03F319439040704794
:1002D000064C074D06E0E06840F0010394E8070093
:1002E00098471034AC42F6D3FFF704FF446B000884
:1002F000646B000870B5044600688168C943C9078B
:1003000017D1816821F00101816001F0BDF8054637
:100310000AE000BF01F0B8F8401B022804D92068A9
:100320008068C043C00706D020688068C043C0070B
:10033000F0D0002070BDA06A40F01000A062E06A1A
:1003400040F00100E062012070BD0000F8B5002619
:100350000446009600688168C943C9072DD08168AA
:1003600041F001018160164816490068B0FBF1F0C8
:1003700000E0401E00900028FBD101F085F8054602
:1003800016E000BF01F080F8401B022810D9206859
:100390008068C043C0070BD0A06A40F01000A06284
:1003A000E06A40F00100E06284F824600120F8BDBA
:1003B00020688068C043C007E4D10020F8BD000079
:1003C0001000002040420F00044B4FF4807108B130
:1003D000002200E00122184601F051B80008014057
:1003E0001FB5002002904FF4807000900120019012
:1003F000022003906946024800F04CFF1FBD000038
:100400000008014004488069002804D0002302222B
:10041000194605F0D3BC7047EC000020FEE7012030
:1004200000F00CB810B50221034801F023F80128B0
:1004300000D0002010BD000000080140044B08B1AE
:10044000012200E000220221184601F018B8000045
:10045000000801402DE9F05F82468B460020FFF73F
:10046000EDFF142003F038FF012202211C4801F0A7
:1004700006F83C2004F034FCFFF7D4FF4FF0FF39BE
:1004800058BB4FF47A742146012000F04EF820BB8F
:100490002146002000F049F8F8B900F023F8C5B271
:1004A00000F020F800F0FF0800F01CF8C4B200F0E3
:1004B00019F8C7B200F016F8C6B20120FFF7BEFF68
:1004C00005EB080020443844B04206D1CAF8005079
:1004D0000020CBF80040BDE8F09F4846FBE7000055
:1004E000000801402DE9F04100242546671E4FF425
:1004F0007A763146012000F018F870B9282004F00F
:10050000EFFB6400FFF78EFF012801D144F00104E6
:100510003146002000F009F810B13846BDE8F081FE
:100520006D1C082DE5DB2046F8E770B50C46054646
:1005300008E0FFF777FFA84201D1002070BD01203D
:1005400004F0CEFB641EF4D24FF0FF3070BD704754
:10055000F8B50746002004460D4E0E4D009007E00A
:1005600056F8240000236A46394605F03DF9641C1C
:1005700068688442F4DB0098002807D006494FF0F1
:1005800080500860BFF34F8FBFF36F8FF8BD00003E
:10059000A0440020A800002004ED00E010B54FF4B6
:1005A000806000F06BFE4FF4006000F067FEBDE875
:1005B00010404FF4805000F061BE202000F05EBE7D
:1005C00088B000273D46B84605F06AFCCDF81C000F
:1005D0004FF4FA742146012004F09EFB514E22464E
:1005E00003A9F06805F066F90128F1D103A800F02D
:1005F00069FB0446B068401CB060062C07D06CB1A3
:10060000BC4209D16D1CEDB2032D01D263E003257C
:10061000B8F1000F04D05EE001257CE000255BE02E
:100620004FF0010803F07CF80621002003F01FF8CA
:10063000204603F0C9F902460621002003F078F8AD
:1006400003F0EAF84FF47A726421502000264FF04C
:100650000309504301FB02FBA9F1010A1746009070
:100660000120FFF7B1FEBBFBF7F004F0BDFC00205A
:10067000FFF7AAFE564504DA0098B0FBF7F004F045
:10068000B3FC761CF6B24E45EAD305270026A7F147
:1006900001090121084602F0D9FC962004F0A4FCCF
:1006A0000021012002F0D2FC4E4502DA642004F061
:1006B0009BFC761CF6B2BE42EBD3BDF814009DF84D
:1006C0001820BDF816108DE80700DDE90323214648
:1006D000154803F0E1FBF5B9B8F1010F1BD14FF05C
:1006E000000803F01DF80621002002F0C0FF0020E2
:1006F00003F06AF902460621002003F019F803F01E
:100700008BF80020FFF760FE0021012002F09EFC24
:1007100006A003F0C1FB27464FF4FA7107A804F0C6
:1007200089FC55E7EC000020006B00085B454E5645
:100730005D5B414C41524D5D206261636B20746F83
:10074000206E6F726D616C0D0A0000008AB005F0BA
:10075000A7FB099002F0E4FF02F074FF002136A22B
:10076000084602F0E5FF38A20221002002F0E0FF77
:1007700039A20421002002F0DBFF3AA2062100206A
:1007800002F0D6FF03F048F83A4D4FF47A7422464F
:100790006946E86805F08EF8012847D102F0C0FFED
:1007A000009840F2E731C84206D0024632A104A8C0
:1007B000019B03F081FB03E033A104A803F07CFB61
:1007C0000021084602F053FF002104AA084602F067
:1007D000AFFF9DF80C00C0B12FA300BFBDF80820EB
:1007E0002EA104A803F068FB0221002002F03FFFC5
:1007F00004AA0221002002F09BFFBDF80A2032B1BA
:100800002AA104A803F058FB05E02BA3E6E72BA1DF
:1008100004A803F051FB0421002002F028FF04AAE1
:100820000421002002F084FF02F0F6FF214609A80F
:1008300004F000FCABE70000543A2D2D27432020A4
:10084000483A2D2D250000004C3A2D2D2D2D20202D
:100850004F6273743A2D2D00446973743A2D2D2D17
:10086000636D00005374617475733A204E6F726D3E
:10087000616C0000EC000020543A253364274320CB
:10088000483A253364252500543A2D2D2743204826
:100890003A2D2D25252020004E0000004C3A252D14
:1008A0003464204F6273743A257300004469737492
:1008B0003A252D3364636D00590000004469737458
:1008C0003A2D2D2D636D20001CB5012004F030FE63
:1008D0005A4C002210212061012004F034FEE06017
:1008E000216900297BD000287AD002F019FF02F09C
:1008F000CDFE02F0A7FE02F08FFFFFF790FD02F0A1
:10090000B5FBFFF76DFD02F0DBFB02F0AAFA02F087
:10091000FDFF03F010FA0020FFF756FD0021012033
:1009200002F094FB02F08EFE002145A2084602F080
:10093000FFFE47480090002301224FF4FA7145A0C2
:1009400005F02EFC6061002870D005F0A9FA0025A2
:10095000024600952B460121606905F06BFC2020C2
:10096000CDE900054FF4A074002322463CA13E4887
:1009700005F0CCF9012802D03CA003F08DFA18262E
:10098000CDE900650023224642A1444805F0BEF9A6
:10099000012802D042A003F07FFA28480023183033
:1009A000CDE90060224649A14A4805F0AFF9012887
:1009B00002D049A003F070FA1020CDE90005002311
:1009C00022464FA1504805F0A1F9012802D04FA0BE
:1009D00003F062FA0221002002F049FE01E014E077
:1009E0001BE054A20221002002F0A2FE04210020FC
:1009F00002F03DFE54A20421002002F099FE42F2D2
:100A00001074204604F0F0FAFBE7502080F31188C0
:100A1000BFF34F8FBFF36F8FFEE7502080F3118835
:100A2000BFF34F8FBFF36F8FFEE7FFE7502080F3D8
:100A30001188BFF34F8FBFF36F8FFEE7EC000020EC
:100A4000537973205374617274696E672E2E2E0071
:100A500005040008416C61726D546D720000000065
:100A600053656E736F720000590B00085B454E565C
:100A70005D5B4552525D2053656E736F72207461E9
:100A8000736B20637265617465206661696C65646F
:100A9000210D0A00446973706C6179004D070008EC
:100AA0005B454E565D5B4552525D20446973706CE8
:100AB0006179207461736B2063726561746520666F
:100AC00061696C6564210D0A00000000416C61726F
:100AD0006D000000C10500085B454E565D5B455248
:100AE000525D20416C61726D207461736B20637282
:100AF00065617465206661696C6564210D0A00009A
:100B00005541525400000000490C00085B454E5608
:100B10005D5B4552525D2055415254207461736BA8
:100B200020637265617465206661696C6564210D7E
:100B30000A00000053797374656D20526561647911
:100B4000212020200000000034205461736B7320AA
:100B500052756E6E696E670088B00025019502952A
:100B6000009505F09DF9079040F2DC5004F03CFA46
:100B7000DFF8A8802A4C0595CDF80C800026CDF82A
:100B80001080069504E0002E02DD142004F02CFAFB
:100B900004F056F902A901A8FFF75CFC074604F02F
:100BA0006FF957B1761C032EEDDB1EA003F074F92C
:100BB000684602F08BFA28B113E00298039001987E
:100BC0000490F5E70098A0F6FF70404280B2ADF8BF
:100BD00014002188884200D920806188884200D290
:100BE0006080684602F094FE10B90098ADF81600D7
:100BF00002F038F900B101208DF81800022300221C
:100C000003A9E06804F03AFD6068401C60604FF49E
:100C1000FA6107A804F00EFAADE7000019FCFFFF27
:100C2000EC0000205B454E565D2044485431312095
:100C300072656164206661696C2028332074726972
:100C40006573290D0A00000088B005F029F9104DE0
:100C500040F6B8340790224603A9E86804F02AFE5B
:100C6000012810D103A800F02DF8BDF816209DF83A
:100C700018100092CDE90110DDE90312BDF814301F
:100C800004A003F009F9214607A804F0D3F9E2E72C
:100C9000EC0000205B454E565D20543A25642C48FC
:100CA0003A25642C4C3A25752C443A25752C4F3A3C
:100CB00025642C7374617475733D25640D0A0000FE
:100CC00072B6FEE7114A0168914207D0232901DB81
:100CD00001207047052901DC0220704741689142DC
:100CE00007D0502901DB03207047142901DC0420C0
:100CF0007047017B31B10089401EB0F5F97F03D800
:100D000005207047062070470020704719FCFFFF40
:100D1000F8B500250446009590F8240001280BD072
:100D2000012084F824002046FFF7E4FA2046FFF76C
:100D30000DFB060002D050E00220F8BDA06A20F4AE
:100D4000885040F00200A062022000F00FFF254909
:100D50000968B1FBF0F0400000E0401E0090002860
:100D6000FBD12068816841F00801816000F08CFBB4
:100D7000074608E000F088FBC01B0A2803D920685A
:100D80008068000715D4206880680007F2D42068C6
:100D9000816841F00401816000F076FB074612E0B3
:100DA00000F072FBC01B0A280DD92068806840073C
:100DB00009D5A06A20F0020040F01000A06284F87B
:100DC00024500120F8BD206880684007E8D4A06A5C
:100DD00020F0020040F00100A06284F82450304668
:100DE000F8BD000010000020F8B50024009490F831
:100DF00024202546012A12D0012280F824204A68A6
:100E00001F23072A0DD20668776B521E02EB82025F
:100E100093409F430B6893401F43776319E0022080
:100E2000F8BD06680D2A0AD2376BD21F02EB820288
:100E300093409F430B6893401F43376309E0F76A71
:100E40000D3A02EB820293409F430B6893401F438D
:100E5000F7620A68072306680A2A0AD3F7680A3A7B
:100E600002EB420293409F438B6893401F43F7601D
:100E700008E0376902EB420293409F438B6893403E
:100E80001F4337610A68102A01D0112A20D1124B62
:100E900002689A4217D193681B0219D4936843F4ED
:100EA000000393600968102912D10C490C4A0968A3
:100EB000B1FBF2F101EB8101490000E0491E009114
:100EC0000029FBD104E0816A41F020018162012404
:100ED00080F824502046F8BD002401401000002076
:100EE00040420F000068C06C704700002DE9F041DF
:100EF0004FF0000704003D467ED0A06A002628B9C6
:100F0000E66284F82460204600F07EF82046FFF771
:100F1000F1F9A16AC90600D420B1A06A40F010001E
:100F2000A06269E0A16A21F4885141F00201A16246
:100F30006268E169237B0A4347EA43010A43A168E7
:100F40004FF48077B94209D0012907D05FF0000142
:100F500094F814C0BCF1010F02D00AE03946F7E75B
:100F6000F3B1A36A43F02003A362E36A43F00103F1
:100F7000E3622368D3F804C02CF4694C4CEA010CFA
:100F8000C3F804C021688B68DFF870C003EA0C0363
:100F900013438B60A168B9420BD0012909D00CE042
:100FA000DFF85CC0A3690CEB43330B4343F40061EF
:100FB000DFE7218A0D05A5F580152168CB6A23F4AA
:100FC00070032B43CB62216889680E4B1940914214
:100FD00008D1E662A16A21F0020141F00101A1629B
:100FE000BDE8F081A06A20F0020040F01000A0628D
:100FF000E06A40F00100E0620120F1E7FDF7E1FF67
:1010000000E0FFFFFE0E1FFF00B585B0002100913C
:1010100001910291039100680E49884218D10E484F
:10102000816941F400718161816901F40071049169
:10103000816941F0040181618069694600F0040022
:1010400004900820009003200190044800F022F949
:1010500005B000BD0024014000100240000801401E
:101060002DE9F84300270D460446009700F00CFADE
:10107000804620688168C90508D5A06A40F0200034
:10108000A06284F824700120BDE8F8834168C90596
:1010900003D4C06A10F4700F2AD0022000F066FD5D
:1010A0003B490968B1FBF0F62068036939490B42F6
:1010B0004FEA61014FEAA1121FD1C3684FEA611CD8
:1010C00013EA0C0F19D103690B4225D1C0681042F5
:1010D00022D1142023E0681C0AD02DB100F0D4F9ED
:1010E000A0EB0800A84203D920680068800725D536
:1010F000206800688007EED52DE003690B4202D11D
:10110000C168114206D0026923490A4206D1C0686B
:10111000084203D1542002E0292000E0FC2046438D
:10112000009816E0681C11D02DB100F0ADF9A0EBCD
:101130000800A8420AD90098B04207D2A06A40F03D
:101140000400A06284F8247003209DE70098401CEE
:101150000090B042E6D321686FF012000860A06AE8
:1011600040F40070A06220688068C0F34240072805
:101170000CD1207B50B9A06A20F48070A062A06AD4
:10118000C00403D4A06A40F00100A06200207BE705
:1011900010000020244992244992240070B504468E
:1011A00090F8240001280DD0012084F82400204666
:1011B000FFF7CCF802004FF0000005D084F82400BF
:1011C000104670BD022070BDA16A40F20123994310
:1011D00041F48071A1621F4D23681F49AB4218D1B1
:1011E0000E6816F4702F14D0A66A46F48016A66214
:1011F0000E68760505D5A66A26F4005646F4805694
:10120000A662A66AF6040AD5E66A26F00606E66233
:1012100006E0A66A26F48016A6625E68E9E7E06248
:1012200084F824006FF00200186020688368C3F31C
:101230004243072B05D1A84208D1096811F4702F49
:1012400004D0816841F480118160B9E7816841F47C
:10125000A001F9E70028014004240140202807D01C
:10126000B0F5806F06D0B0F5805F05D102F002BB0B
:1012700001F044BF01F090BE70470000044910B572
:101280000A68024202D00860FFF7E8FF10BD0000C4
:10129000140401402DE9F84FDFF8B8910024A9F1BA
:1012A000040B23460F2709F1040AABF1040EC9E031
:1012B0000125A5402A40AA427DD1674ED1F804C03D
:1012C000ACEB0608B44532D014DCBCF1030F3AD0C5
:1012D00009DCBCF1000F2AD0BCF1010F1CD0BCF11D
:1012E000020F31D11DE0BCF1110F17D0BCF1120F6C
:1012F0002AD119E0B8F5881F19D006DCB8F5803F6F
:1013000015D0B8F5801F1FD111E0B8F5001F0ED021
:10131000B8F5041F18D10AE0CB6815E0CB681B1D97
:1013200012E0CB6808330FE0CB680C330CE08B681D
:101330002BB1012B4FF0080303D0456104E00423D7
:1013400002E0056100E00023FF2A01D8064601E023
:1013500000F104064FEA840501D9A5F12005D6F86D
:10136000008007FA05FC28EA0C0803FA05F548EAAC
:101370000508C6F800804D68ED0062D5374DAE69AE
:1013800046F00106AE61AD6924F0030605F00105E3
:101390000095334D06EB050CDCF80850A607360F18
:1013A00007FA06F825EA0805DFF8B880404503D1BA
:1013B0004FF0000817E044E0DFF8AC80404502D170
:1013C0004FF001080FE0DFF8A480404502D14FF054
:1013D000020808E0DFF89880404502D14FF003088A
:1013E00001E04FF0040808FA06F848EA0508CCF8CE
:1013F00008804D68D9F80060ED024D4601D51643CE
:1014000000E096432E604D68DAF80060AD02554664
:1014100001D5164300E096432E604D68DBF800606E
:10142000AD035D4601D5164300E096432E604D683E
:10143000DEF80060ED03754601D5164300E09643E3
:101440002E60641C0D682A46E5407FF431AFBDE88C
:10145000F88F000008040140000011100010024045
:101460000000014000080140000C01400010014054
:10147000001401408068084000D0012070470AB184
:10148000016170470904FBE701488068704700006C
:101490000400002070B5040025D094F83D0000251C
:1014A00020B984F83C50204600F0E6F9242084F866
:1014B0003D002068016821F0010101602068016899
:1014C00041F4004101602068016821F4004101609D
:1014D00000F0CAFC4D4A6168914201D84C4900E0D5
:1014E0004C49884201D2012070BD4B492368B0FBB2
:1014F000F1F15E6826F03F060E435E60636893423A
:1015000006D94FF4967359434FF47A73B1FBF3F154
:101510002368491C1E6A26F03F0631431962616840
:10152000914210D84900401EB0FBF1F2521CC2F3A8
:101530000B02042A01D2042022E0B0FBF1F0401C8F
:10154000C0F30B001CE0A268F2B301EBC10303EB94
:101550000116431EB3FBF6F35B1C43F480431B05EB
:1015600049D092B301EBC10202EB0111401EB0FB66
:10157000F1F0401CC0F30B0040F4804040F4004008
:101580002168CA694CF6FF739A431043C861D4E9D5
:10159000071001432068026822F0C0021143016075
:1015A000D4E9030101432068826848F2FF339A437B
:1015B00011438160D4E9050108432168CA6822F01B
:1015C000FF021043C86001E00EE016E020680168E9
:1015D00041F0010101602564202084F83D0025636D
:1015E00084F83E50002070BD01EB4106431EB3FB62
:1015F000F6F35B1CB3E70120C2E701EB4101401E9B
:10160000B0FBF1F0401CC0F30B00B7E7A08601006F
:1016100080841E0000093D0040420F002DE9F84F74
:101620001F4690468A460446DDF82890FFF72CFFB7
:10163000054694F83D0020287FD119230122404916
:101640002046009501F03CFB002876D194F83C0040
:10165000012872D0012084F83C0020680168C90785
:1016600003D1016841F0010101602068016821F4A3
:1016700000610160212084F83D00102084F83E00C4
:1016800000262664C4F824806785608D20852D4857
:10169000E0622B464A465146204601F043FA90B993
:1016A000206841698069009036E02A464946204614
:1016B00001F0ACFB50B1206C042804D12068016813
:1016C00041F4007101600120BDE8F88F606A216873
:1016D00000780861606A401C6062618D491E618506
:1016E000218D491E89B2218522685369DB435B073E
:1016F0000BD451B100781061606A401C6062608D4B
:10170000401E6085208D401E20852A464946204681
:1017100001F0AAFA0028CED1208D0028C5D154F8B6
:101720003D0B016841F400710160202004F81E099E
:10173000E67766770020C7E7FFE70220C4E70000EE
:10174000020010000000FFFF2DE9FF4F83B09A4612
:10175000DDE9119793460446DDF84080FFF794FEDB
:10176000054694F83D0020287FD1192301224049E5
:101770002046009501F0A4FA002876D194F83C00A8
:10178000012872D0012084F83C0020680168C90754
:1017900003D1016841F0010101602068016821F472
:1017A00000610160212084F83D00402084F83E0063
:1017B00000262664C4F82480A4F82A90608D208531
:1017C0002C48E062CDE9007553465A4620460499FC
:1017D00001F0F6F970B930E02A463946204601F0AA
:1017E00015FB58B1206C042804D12068016841F42D
:1017F00000710160012007B0BDE8F08F606A2168C8
:1018000000780861606A401C6062218D491E89B2BF
:101810002185628D521E628522685369DB435B0716
:101820000BD469B100781061606A401C6062208D41
:10183000401E2085608D401E6085208D0028CBD104
:101840002A463946204601F00FFA0028CAD154F83A
:101850003D0B016841F400710160202004F81E096D
:10186000E67766770020C6E7FFE70220C3E70000BF
:10187000020010000000FFFF10B586B000210091AB
:1018800001910291039100680F4988421AD10F4CCF
:10189000A06940F00800A061A069694600F0080056
:1018A0000490C0200090122001900320039008486B
:1018B000FFF7F0FCE06940F40010E061E06900F43B
:1018C0000010049006B010BD00540040001002400B
:1018D000000C014002488168027811448160704721
:1018E00004000020074810B5016841F010010160B4
:1018F000032000F0A7F80F2000F006F800F050F8E1
:10190000002010BD0020024030B505461F4887B0BA
:10191000C16941F00401C161C06906A900F0040079
:10192000009001A800F080FA0498B0B100F09CFA91
:1019300040001749174AB0FBF1F11748491E0260F1
:10194000416040F2E7320021C0E9032181608161FA
:1019500000F052FD040003D015E000F085FAE8E73E
:101960000D4800F095FD04000DD11E2000F03CF85C
:10197000102D07D2002229461E2000F043F8074808
:10198000056000E0012407B0204630BD0010024091
:1019900040420F0000080040F80500200800002029
:1019A0000F4808B5816941F001018161816901F049
:1019B00001010091C16941F08051C161C0690022FB
:1019C00000F0805000900F21901E00F01BF8054899
:1019D000416821F0E06141F00071416008BD000004
:1019E0000010024000000140002809DB00F01F0247
:1019F000012191404009800000F1E020C0F8001171
:101A000070470000F0B40E4B1B680C46C3F3022372
:101A1000C3F10705042D00D90425191D072901D29A
:101A2000002300E0DB1E012606FA05F1491E2140D5
:101A300099409E40761E16403143F0BC02F050BAE9
:101A40000CED00E0064900F0070208684FF6FF03BE
:101A5000184040EA0220034A104308607047000023
:101A60000CED00E00000FA052DE9F04186B004001D
:101A700004D094F8A902002520B108E0012006B0A6
:101A8000BDE8F08184F8A852204600F05BF80320FE
:101A900084F8A902206802F0F4F904F1100114227C
:101AA00088466846FEF7CBFB94E80F0002F0DCF9AD
:101AB0000227D0BB0021206802F0EAF900200126AD
:101AC0000EE000BF00EB800104EBC10181F829604A
:101AD00001F8280F401CCD700D614D61C0B28D61C1
:101AE00061688142EED8002012E000BF00EB800167
:101AF00004EBC10181F8695181F8680181F86B51EB
:101B0000C1F87851C1F87C51401CC0B2C1F8805175
:101B100061688142EAD8142241466846FEF78FFB8D
:101B200094E80F0002F0A4F910B184F8A972A5E7B7
:101B300084F8245084F8A962206802F097F9002004
:101B40009DE7000008B500680649884208D10648AC
:101B5000C16941F40001C161C06900F40000009056
:101B600008BD0000005C00400010024010B50146B6
:101B70000020234C012922D0022939D010291DD15F
:101B800061682268D20119D51E48C1F38342C90396
:101B9000805C0AD561681B4AC1F34041921E515CCA
:101BA000194AB2FBF1F1484301E018494843616822
:101BB000490203D440000321B0FBF1F010BD226ABA
:101BC000C2F30121012903D1920701D5C80310BD39
:101BD000022905D1626A920702D549F6404010BD3C
:101BE0000329FCD121688903F9D54FF2244010BDA7
:101BF00000F04AF96168C1F38131491C4900DBE713
:101C000000100240D862000800127A0000093D006E
:101C10002DE9F84305460078354CC00754D0E069FB
:101C20000026C00008D4E06940F08050E061E0691F
:101C3000012600F0805000902E480168C90512D49A
:101C40000168804641F480710160FFF71DFC074682
:101C500005E000BFFFF718FCC01B642823D8D8F8A4
:101C60000000C005F6D5206A10F4407021D0A98884
:101C700001F4407181421CD0206A1F49012220F4E6
:101C800040700A6000220A602062C00711D0FFF78E
:101C9000FBFB074641F2883808E000BFFFF7F4FB82
:101CA000C11B414502D90320BDE8F883206A8007A3
:101CB000F4D5206A696820F44070084320621EB1A0
:101CC000E06920F08050E0612878800705D56068E1
:101CD000A96820F44040084360602878C00605D514
:101CE0006068E96820F48000084360600020DBE75A
:101CF0000010024000700040400442422DE9F047CD
:101D00000F46050061D0434E306800F00700B8422E
:101D100009D2306820F0070038433060306800F0A6
:101D20000700B84251D128683B4C810712D54007C3
:101D300003D5606840F4E06060602878000703D550
:101D4000606840F4605060606068A96820F0F0004E
:101D5000084360602878C00728D06868012810D040
:101D60002168022810D0890700292EDA616821F045
:101D7000030101436160FFF787FB804641F2883928
:101D80000DE021688903EFE78901EDE7FFF77CFBB0
:101D9000A0EB0801494502D90320BDE8F08760683F
:101DA000696800F00C00B0EB810FEFD1306800F0F3
:101DB0000700B8420BD9306820F007003843306084
:101DC000306800F00700B84201D00120E5E728782C
:101DD000400705D56068E96820F4E060084360606A
:101DE0002878000706D56068296920F4605040EA29
:101DF000C100606000F058F86168084AC1F303113F
:101E0000515CC8400649086006480068FFF77CFD41
:101E10000020C2E70020024000100240E8620008F3
:101E200010000020080000200F2202600C4A5368B6
:101E300003F003034360536803F0F00383605368C7
:101E400003F4E063C36052684FF4E06303EAD20234
:101E500002610448006800F0070008607047000055
:101E6000001002400020024004480549006849680B
:101E7000044AC1F30221515CC840704710000020A1
:101E800000100240F86200080448054900684968EB
:101E9000044AC1F3C221515CC840704710000020C1
:101EA00000100240F86200080E4A51680E4801F026
:101EB0000C03042B11D0082B0FD10C48C1F3834322
:101EC000C903C05C0AD55168084AC1F34041921E5B
:101ED000515C054A5043B0FBF1F070470449484358
:101EE000704700000010024000127A00C66200082D
:101EF00000093D002DE9F84F040070D02078C04D56
:101F0000C00749D06868C0F38100012807D068681D
:101F1000C0F38100022809D16868C00306D528688B
:101F2000800339D560680028E7D035E06068B0F5F7
:101F3000803F0BD010B1B0F5A02F11D0286820F44D
:101F400080302860286820F4802002E0286840F46F
:101F500080302860606890B1FFF796FA06460AE084
:101F6000286840F480202860F0E700BFFFF78CFA73
:101F7000801B642873D828688003F7D50CE0FFF72E
:101F800083FA064605E000BFFFF77EFA801B64284F
:101F9000F0D828688003F7D420789A4E80074FF055
:101FA00001094FF0000839D5686810F00C0F07D010
:101FB0006868C0F38100022809D16868C00306D4AC
:101FC0002868800714D52069012808D110E020690D
:101FD000B0B1C6F80090FFF757FA074605E00AE1EE
:101FE000FFF752FAC01B0228C4D828688007F7D52B
:101FF0002868616920F0F80040EAC10028600DE01F
:10200000C6F80080FFF740FA074604E0FFF73CFA05
:10201000C01B022823D828688007F7D4207800073F
:102020002CD57948A169D9B1C0F80090FFF72CFAF6
:10203000074604E0FFF728FAC01B02280FD8686A99
:102040008007F7D571484FF4FA510068B0FBF1F002
:10205000009000BF0098411E0091FAD20EE080E08F
:10206000C0F80080FFF710FA074604E0FFF70CFA0B
:10207000C01B022875D8686A8007F7D4207840070B
:1020800060D5E8690027C00008D4E86940F08050B6
:10209000E861E869012700F0805000905C48016821
:1020A000C90513D40168834641F480710160FFF7CC
:1020B000EBF9824606E000BFFFF7E6F9A0EB0A0065
:1020C00064284ED8DBF80000C005F5D5E06801288B
:1020D0000AD008B1052813D0286A20F00100286230
:1020E000286A20F0040002E0286A40F0010028621B
:1020F000E06841F2883B98B1FFF7C6F982460BE0F1
:10210000286A40F004002862EEE700BFFFF7BCF940
:10211000A0EB0A0159455AD8286A8007F6D50CE089
:10212000FFF7B2F9824605E0FFF7AEF9A0EB0A012E
:1021300059454CD8286A8007F6D41FB1E86920F0C9
:102140008050E861E06988B36968C1F381010229C0
:1021500044D00228C6F8608004D0FFF795F9044601
:1021600038E034E0FFF790F9074604E0FFF78CF918
:10217000C01B02282BD828688001F7D4206AB0F54C
:10218000803F05D16868A16820F40030084368608A
:10219000D4E908010843696821F4741108436860B0
:1021A000C6F86090FFF770F9044606E025E000BF2E
:1021B000FFF76AF9001B022809D828688001F7D5C3
:1021C0001BE000BFFFF760F9001B022802D90320C3
:1021D000BDE8F88F28688001F4D40EE00128F7D01C
:1021E0006868226A00F48031914204D1616A00F487
:1021F0007010884201D00120EAE70020E8E70000E3
:1022000000100240000042428004424210000020C0
:102210000070004070B5040009D0606A002540B12C
:1022200025616561A56294F8510040B10CE0012080
:1022300070BD6068B0F5827FF4D0E561F2E784F8A4
:102240005050204600F040F8022084F851002068E9
:10225000016821F040010160A088218900F48270AA
:1022600001F404410843A18901F400610843217C81
:1022700001F002010843217D01F001010843218B97
:1022800001F400710843217F01F03801084394F8FC
:10229000201001F080010843218D01F40051084312
:1022A00021680860A069042101EA104021684860A3
:1022B0002068C16921F40061C1616565012084F86D
:1022C0005100002070BD000030B585B0002400949E
:1022D00001940294039400681449884223D114485D
:1022E000816941F480518161816901F480510491D7
:1022F000816941F00401816180690E4D00F00400A4
:102300000490A020009002200190032003906946D1
:102310002846FEF7BFFF4020CDE900046946284665
:102320000294FEF7B7FF05B030BD00000030014059
:1023300000100240000801407047704710B590F847
:102340003C20012A22D0012280F83C20CA688C68F7
:1023500022F4407222434C6822F4806222430C68CB
:1023600022F4006222430C6922F4805222434C6919
:1023700022F400522243C969002322F480420A4316
:1023800001684A6480F83C30002010BD022010BD76
:1023900070B590F83C20012A26D0012480F83C40FA
:1023A000022280F83D2003685A689D6822F070067A
:1023B0000A6832435A600D4B02689A4208D0B2F163
:1023C000804F05D00A4B9A4202D00A4B9A4204D160
:1023D000496825F080031943916080F83D40002151
:1023E00080F83C10084670BD022070BD002C0140F2
:1023F000000400400008004010B5040003D094F829
:102400003D0010B107E0012010BD002084F83C0021
:10241000204600F01FF8022084F83D00211D2068AE
:1024200001F07CFB012084F8460084F83E0084F82B
:102430003F0084F8400084F8410084F8420084F8AA
:10244000430084F8440084F8450084F83D000020EF
:1024500010BD000008B50C4A01680C48914207D134
:10246000816941F400618161806900F4006009E0E4
:10247000B1F1804F07D1C16941F00101C161C0696B
:1024800000F00100009008BD002C01400010024047
:1024900090F83D10012901D001207047022180F8F9
:1024A0003D100168CA6842F00102CA6000680B4929
:1024B000884208D0B0F1804F05D00949884202D047
:1024C0000849884204D1816801F00701062903D038
:1024D000016841F00101016000207047002C0140BB
:1024E000000400400008004070B5044690F83C002D
:1024F0000025012817D0012684F83C60022084F8CA
:102500003D002068826822F0770222F47F428260D8
:102510000868502838D00DDC20284FD005DC90B357
:10252000102811D14AE0022070BD302846D0402842
:102530000AD13BE060282FD070280DD0B0F5805F25
:1025400003D0B0F5005F12D0012584F83D60002073
:1025500084F83C00284670BDCB68D1E90121206891
:1025600001F012FB2068816841F0770109E0CB6837
:10257000D1E90121206801F007FB2068816841F45E
:1025800080418160E1E719E0CA684968206801F08C
:10259000AFFB5021206806E0CA684968206801F056
:1025A000B8FB6021206801F0F9FACEE7CA684968F3
:1025B000206801F09DFB40212068F4E72268014675
:1025C0001046F0E7704770B50446006801694FF0A7
:1025D0000005C943890715D4C168C943890711D4C7
:1025E000E91E01610120207720688069800720466C
:1025F00002D0FFF7E7FF04E000F00EF9204600F0FC
:10260000B3F9257720680169C943490717D4C16820
:10261000C943490713D46FF00401016102202077F8
:102620002068806910F4407F204602D0FFF7CAFF7F
:1026300004E000F0F1F8204600F096F925772068D4
:102640000169C943090716D4C168C943090712D4EF
:102650006FF008010161042020772068C0698007BD
:10266000204602D0FFF7AEFF04E000F0D5F8204688
:1026700000F07AF9257720680169C943C90617D4A3
:10268000C168C943C90613D46FF010010161082065
:1026900020772068C06910F4407F204602D0FFF701
:1026A00091FF04E000F0B8F8204600F05DF92577CE
:1026B00020680169C943C90708D1C168C943C9076E
:1026C00004D1891E0161204600F050F9206801699B
:1026D000C943090609D4C168C943090605D46FF086
:1026E000800101612046FFF727FE20680169C94388
:1026F000490609D4C168C943490605D46FF04001B1
:102700000161204600F03CF920680169C94389064F
:102710000BD4C168C943890607D46FF02001016159
:102720002046BDE87040FFF708BE70BD70B586B0AA
:10273000002100910191029103910068304B3149D1
:102740000224314A984211D1886940F0040088611E
:102750008869039400F0040004908815CDE9000412
:1027600069461046FEF796FD06B070BD274E284D0F
:10277000B0F1804F1BD0274A9042F5D1886940F0D4
:10278000080088618869694600F0080004901020FC
:10279000CDE9000430460394FEF77CFD686820F420
:1027A000406040F0E06040F400606860DCE7886909
:1027B00040F004008861886900F004000490886992
:1027C00040F0080088618869694600F008000490BC
:1027D00048F20400CDE9000410460394FEF75AFDC8
:1027E0000820CDE90004694630460394FEF752FD07
:1027F000686820F4407040F0E06040F48070D4E7F6
:10280000002C01400010024000080140000C014073
:102810000000014000040040704770B5044690F885
:102820003C0000260D4601280FD0012084F83C0012
:102830006AB1042A1DD0082A2FD00C2A3FD00126C5
:10284000002084F83C00304670BD022070BD206836
:1028500001F0ACF92068816941F0080181612068CC
:10286000816921F004018161206881692A6911432D
:1028700011E0206801F0C2F92068816941F400612B
:1028800081612068816921F48061816120688169AA
:102890002A6941EA02218161D2E7206801F0DAF970
:1028A0002068C16941F00801C1612068C16921F057
:1028B0000401C1612068C1692A69114311E02068DF
:1028C00001F0F4F92068C16941F40061C161206838
:1028D000C16921F48061C1612068C1692A6941EA46
:1028E0000221C161ACE710B5040003D094F83D00AB
:1028F00010B107E0012010BD002084F83C00204604
:1029000000F01EF8022084F83D00211D206801F02F
:1029100005F9012084F8460084F83E0084F83F0061
:1029200084F8400084F8410084F8420084F84300B1
:1029300084F8440084F8450084F83D00002010BD70
:1029400008B500680649884208D10648C16941F0C7
:102950000201C161C06900F00200009008BD0000E2
:102960000004004000100240704700000068034966
:10297000884201D1FEF7AEBF70470000000800405A
:10298000704770B5040004D094F84100002510B1E0
:1029900006E0012070BD84F84050204600F024F885
:1029A000242084F841002068C16821F40051C160EE
:1029B000204601F0C1F92068016921F490410161CC
:1029C0002068416921F02A0141612068C16841F411
:1029D0000051C1606564202084F8410084F8420001
:1029E0006563002070BD000030B585B00024009400
:1029F00001940294039400681449884224D1144835
:102A0000816941F480418161816901F480410491CF
:102A1000816941F00401816180690E4D00F004007C
:102A200004904FF400700090022001900320039066
:102A300069462846FEF72EFC2815CDE900046946B4
:102A400028460294FEF726FC05B030BD0038014050
:102A500000100240000801402DE9F843044690F8B8
:102A600041001F4616460D46202802D00220BDE830
:102A7000F8837DB176B100206064212084F84100A4
:102A8000FEF702FDA6848046E684A068B0F5805F6C
:102A900002D003E00120EAE7206910B12E460025AC
:102AA0000EE000260CE08021204601F0A1F9A0B93B
:102AB000AEB116F8010B21684860E08C401EE0843E
:102AC000E08C43464FF0000200970028EBD14FF016
:102AD0004001204601F08CF930B10320C7E735F8FA
:102AE000020BC0F30800E6E7202084F84100002034
:102AF000BDE7FEE701684A69D24352050FD46FF47F
:102B000080624A61002140F8301F202242738173A5
:102B1000026942F004020261017301207047002043
:102B200070470000F8B50446C06A1E460D461746B9
:102B3000082807D0012805D010F5803F02D0206B6F
:102B4000122804D12068016841F4807101601346A5
:102B500000224FF001112046009600F0B1F840B17C
:102B600020680068C00502D54FF40070206403207F
:102B7000F8BD2069B0F5804F0ED00620216800EA2C
:102B8000D51040F0F000086133463A460B49204624
:102B900000F0DEF878B902E005F0FE0000E0E8B2EF
:102BA00021680861054933463A46891F204600F0EE
:102BB000CFF80028DCD00120F8BD0000080001009B
:102BC0002DE9F843044600680D46DDE908970168E1
:102BD0009846164641F4807101604B4600224FF042
:102BE00001112046009700F06BF848B1206800689A
:102BF000C00502D54FF4007020640320BDE8F883BF
:102C0000216805F0FE0008613B464A46154920460A
:102C100000F09EF888B920684169806900903A46C2
:102C20004946204600F0F2F848B1206C042804D14F
:102C30002068016841F4007101600120DEE7F5B20F
:102C4000B8F1010F09D02168300A08613A464946B7
:102C5000204600F0DBF80028E7D12068056100205D
:102C6000CCE700000200010070B516460D46044690
:102C70001EE02046FFF73EFF08B1012070BD681C32
:102C800016D0FEF701FC801BA84200D885B9206849
:102C90004069C04340070BD5002044F8300F202185
:102CA0006173A073216941F0200121612073E4E781
:102CB00020684069C0434007DBD4002070BD00009D
:102CC0002DE9F047984617460D460446C1F30746DE
:102CD000DDF820902AE000BFB8F1FF3F26D0FEF7D4
:102CE000D3FBA0EB0901414502D8B8F1000F1DD17B
:102CF0002068012E16D0806925EA00000004000C2F
:102D000012D00020B84211D1002044F8300F202109
:102D10006173A073216941F02001216120730120BA
:102D2000BDE8F0874069E7E70120EBE72068012E66
:102D30000AD0806925EA00000004000C06D00020BB
:102D4000B842C9D00020EBE74069F3E70120F7E77C
:102D50002DE9F047984616460D4604464FF0000907
:102D60004FF0200AC1F3074723E020684069C043C1
:102D7000400515D42068016841F4007101602168A4
:102D80006FF480604861C4F8309084F83DA084F806
:102D90003E90216C41F00401216484F83C9021E0D4
:102DA000701C06D0FEF770FBA0EB0800B04203D801
:102DB00016B1012F1FD021E02068012F15D08069A6
:102DC00025EA00000004000C18D000BF44F8309F32
:102DD00084F80DA084F80E90216941F02001216152
:102DE00084F80C900120BDE8F087406925EA0000D6
:102DF0000004000CEAD12068406901E02068806985
:102E000025EA00000004000CAFD1ECE770B51646CF
:102E10000D4604461EE02046FFF76CFE08B1012077
:102E200070BD681C16D0FEF72FFB801BA84200D88F
:102E300085B920684069C04300060BD5002044F8DE
:102E4000300F20216173A073216941F020012161BD
:102E50002073E4E720684069C0430006DBD400200B
:102E600070BD704710B54FF400510348FEF702FBE8
:102E7000002800D0012010BD000C01402DE9FE4FBC
:102E8000DFF8F89000224846DFF8F4C0D0E902618C
:102E9000D9E900400B46341B61EB0001501EB4EB36
:102EA0000C0C1546174671F1000C5ED3DFF8D48088
:102EB0004FF0000CB8EB04047CEB010C55D34C46EE
:102EC000D4E904C1BCEB060661EB03012E4BF31AF7
:102ED00071F1000349D3DFF8B4C00023BCEB060650
:102EE0008B4142D300234FF00309EA4609EB430824
:102EF00008F1010C04EBCC0104EBC80CD1E9006132
:102F0000DCE9008CB6EB080661EB0C015206DFF839
:102F10008080120E6D1C4FF0000CB8EB06067CEBA7
:102F2000010C01D242F00102082D04D10AF8072059
:102F3000002215467F1C5B1C202BD7DB9DF801105F
:102F4000C943CBB28DF801309DF80310C943CAB212
:102F50008DF803209DF80010994203D19DF80230AE
:102F6000934204D00B4A00211160BDE8FE8FCDE9E9
:102F7000011301A8FDF7ECFA0020F6E780420020DB
:102F800000127A0080969800E0673500C03B470346
:102F900040420F00A80000202DE9FC4101F07EFE18
:102FA000244C254ED4E90623871A61EB0302002343
:102FB0001D46F61B934100D22560C4E906011F4A55
:102FC000236802EBC3065B1CC6E900012360042BE7
:102FD00006D0442B02D1FFF751FF2560BDE8FC81EC
:102FE000D2E90260D2E900370146F31A60EB07002C
:102FF000134FDF1B70F10007F0D3DFF848C0002744
:10300000BCEB03038741E9D3D2E90402801B62EBE6
:1030100001020D49411A72F10001DFD34FEAAC03FE
:103020000021181A9141D9D3009568460195FDF702
:103030008FFAD2E7A800002000E1F50580420020C9
:1030400000127A008096980080841E0010B5064811
:103050004FF4005309B1002200E001221946FEF7A7
:103060000EFA002010BD00000010014070B586B0BF
:10307000002411480094019402940394816941F062
:103080001001816180690D4E00F010004FF4005571
:103090000490224629463046FEF7F1F901200095BA
:1030A000CDE901040220039069463046FEF7F2F8AC
:1030B00006B0002070BD000000100240001001406A
:1030C00001480068FDF724BEC800002070B50A4C16
:1030D00005462068FEF762F84FF4FA712068FDF7A4
:1030E000BFFF10B14FF0FF3070BD2068FDF7FAFE52
:1030F0002860002070BD0000C800002008B5002036
:10310000009009486A460121806802F0B5F90098EC
:10311000002807D005494FF080500860BFF34F8F5B
:10312000BFF36F8F08BD00009C00002004ED00E09D
:103130003EB5002411480094019402940E49846025
:10314000016004730475012505614FF4602144603A
:10315000C161FDF7CBFE08B1FDF7B2FD0320CDE95B
:103160000005694602940548FDF73EFE002801D09F
:10317000FDF7A6FD3EBD0000002401400C0100202B
:103180001CB5012002F0D4F90F490860A0B1002459
:103190001820CDE9000423464FF400720BA10E481D
:1031A00002F0B4FD0120CDE90004002380220BA130
:1031B0000C4802F0ABFD1CBD502080F31188BFF31A
:1031C0004F8FBFF36F8FFEE700000020456E764DF6
:1031D0006F6E69746F720000C9080008446566610B
:1031E000756C7400B53900082DE9F04786B00024ED
:1031F0004F480094019402940394816941F01001B6
:103200008161816901F010010491816941F020011F
:103210008161816901F020010491816941F004011B
:103220008161816901F004010491816941F0080123
:10323000816180693F4F00F008004FF40055049011
:10324000002229463846FEF71AF9DFF8EC900022F2
:1032500013214846FEF713F9DFF8E0A04FF40248C7
:10326000002241465046FEF70AF900950226012544
:103270000396CDE9015469463846FEF70BF811274D
:1032800000970396CDE9015469464846FEF702F8D7
:10329000CDE90256CDE9006769464846FDF7FAFFD9
:1032A00003208DE8310069465046FDF7F3FFA80280
:1032B00000902348CDE9010569465046FDF7EAFF35
:1032C000204FE802CDE90007694602955046FDF718
:1032D000E1FF4FF48150CDE9000769460294504662
:1032E000FDF7D8FF4FF48240CDE90004694650460F
:1032F0000294FDF7CFFFCDF800800396CDE901548D
:1033000069465046FDF7C6FF002205211720FEF74B
:1033100079FB1720FEF768FB002205212820FEF725
:1033200071FB2820FEF760FB06B0BDE8F0870000C7
:10333000001002400010014000080140000C014054
:1033400000003110000011100D4810B50B4901604C
:103350000C49416000214FF480428160C0E90312B2
:1033600041618161C1610162FEF794F8002803D0D8
:10337000BDE81040FDF7A4BC10BD000000540040A3
:103380003C010020A0860100104810B50E490160E4
:103390004FF48271416000218160C1604FF400727E
:1033A0000161C0E905120822C0E90721416281627A
:1033B0000A21C162FEF72EFF002803D0BDE81040AD
:1033C000FDF77EBC10BD00000030014090010020E0
:1033D00010B596B000240F94109411941294139485
:1033E0001C2108A81494FCF743FF20216846FCF731
:1033F0003FFF2A48284901604721C0E9011440F2F3
:10340000E731C0E903148021C0E90541FEF7F4FF6C
:1034100008B1FDF755FC4FF480500F900FA91F48DD
:10342000FFF762F808B1FDF74BFC1C48FFF75BFAA9
:1034300008B1FDF745FC139413A918481494FEF73E
:10344000A7FF08B1FDF73CFC6020089040F2F310A4
:10345000CDE909040B940C940D94002208A90F489F
:103460000E94FFF7DAF908B1FDF72AFC00944FF447
:103470000050CDE904400294019403946946074842
:103480000794FEF75BFF08B1FDF71AFC0348FFF74E
:103490004DF916B010BD0000002C0140E8010020DD
:1034A00010B58EB000240794089409940A940B94E4
:1034B0001C2168460C94FCF7DBFE27484FF0804146
:1034C000016040F26711C0E9011440F2CF71C0E918
:1034D000031480218161FEF78FFF08B1FDF7F0FB37
:1034E0004FF48050079007A91B48FEF7FDFF08B175
:1034F000FDF7E6FB1848FFF7F6F908B1FDF7E0FB2A
:103500000B940BA914480C94FEF742FF08B1FDF789
:10351000D7FB6020CDE900040294002269460E48E2
:103520000494FFF77AF908B1FDF7CAFB0422694653
:103530000948FFF772F908B1FDF7C2FB0822694696
:103540000548FFF76AF908B1FDF7BAFB0248FFF733
:10355000EDF80EB010BD00003002002010B58AB0AA
:10356000002407941C2168460894FCF781FE184843
:10357000164901600721C0E9011440F2E731C0E9B2
:10358000031480218161FFF7AEF908B1FDF798FBC4
:10359000079407A90E480894FEF7FAFE08B1FDF754
:1035A0008FFB602000904FF46170CDE90104002290
:1035B000694607480494FFF730F908B1FDF780FB2E
:1035C0000348FFF7B3F80AB010BD00000004004044
:1035D000780200200C4810B50A4901604FF4E1312F
:1035E0004160002181600C22C160C0E90412816148
:1035F000C161FFF7C6F9002803D0BDE81040FDF710
:103600005FBB10BD00380140C00200200B4810B560
:103610000949016008214160022181600021816126
:10362000C1610162FEF720FA002803D0BDE8104016
:10363000FDF746BB10BD0000005C00400803002001
:10364000FEE7FEE710B5A0B0002480216846FCF735
:103650000FFE0021204600F0BFF88021684600F0F0
:10366000F9F8641CE4B2082CF3D320B010BD70B597
:103670000D46044606E020222946204600F072F856
:10368000641CE4B2102CF6D370BD000010B5022407
:10369000202000F0CBF8204600F0C8F81F48047046
:1036A0003F24A82000F0C2F8204600F0BFF8002414
:1036B000D32000F0BBF8204600F0B8F8402000F01E
:1036C000B5F8A12000F0B2F8C82000F0AFF8002152
:1036D000084600F06BF87F24812000F0A7F8204610
:1036E00000F0A4F8A42000F0A1F8A62000F09EF8B5
:1036F000D52000F09BF8802000F098F88D2000F095
:1037000095F8142000F092F80021012000F04EF806
:10371000BDE81040AF2000F089B800009400002000
:1037200002484FF0FF31006902F0FAB9EC000020C6
:103730002DE9F04117460E46044600250BE03146C0
:10374000204600F00FF8641CE4B20F2C02D90024CC
:10375000B61CF6B26D1C7A5D002AF0D12846BDE891
:10376000F081000070B51646C206150E0C460729FA
:1037700018D80F2816D82946204600F02DF80A48F8
:10378000082100EB0610064600F064F8641CE0B265
:10379000294600F021F806F10800BDE87040082134
:1037A00000F058B870BD00000063000870B50C460A
:1037B000050001D0012D0ED10CB1012C0BD1DA2066
:1037C00000F034F8280100EB4410BDE87040801C84
:1037D000C0B200F02BB870BD70B50E4D0C46297804
:1037E000022905D1072803D8B030C0B200F01EF876
:1037F000287802280CD17F2C0AD804F00F0000F0A2
:1038000015F8102000EB1410BDE8704000F00EB861
:1038100070BD000094000020034800231A4619469A
:10382000006901F02BBF0000EC0000201CB5002156
:103830008DF804108DF805004FF4FA7000900448DC
:10384000022301AA78214068FDF7E8FE1CBD0000B4
:10385000940000200EB54FF4FA728DE8070004487A
:103860000123402278214068FDF76EFF0EBD000065
:1038700094000020FEB50020009001F00FFA0646EB
:103880000D46022000F028FD1C4F4FF480513846B1
:10389000FDF7F0FD00282AD0194CD4E90401321AB2
:1038A00065EB010317480021FCF788FC60600121EB
:1038B0003846FDF7DFFD0028206819D0401C206045
:1038C000C4E90465206801906068029000236A469C
:1038D00001A9E06801F088FF0098002807D00A4994
:1038E0004FF080500860BFF34F8FBFF36F8FFEBD66
:1038F000401E2060606840426060E1E7000C0140CB
:10390000D000002000CA9A3B04ED00E070470000A0
:103910002DE9F0470122254E8146540221463046CA
:10392000FDF7ADFD142001F0DBF900222146304601
:10393000FDF7A5FD44F61F6425464FF0FF3AB71585
:1039400004E0012001F0CCF96D1E06D33946304663
:10395000FDF790FD0028F4D02DB301F09FF9054646
:10396000884604E0012001F0BBF9641E06D3394605
:103970003046FDF77FFD0128F4D0A4B101F08EF9A7
:10398000421B1124A2FB040561EB080101FB045159
:10399000002302FB0311064AFCF710FCC9F80000E3
:1039A0000020BDE8F0875046FBE70000000C014016
:1039B00040420F0010B54FF4FA6001F015FBBDE86E
:1039C0001040002001F07CBB072811D2DFE800F096
:1039D000100406080A0C0E0006A0704709A07047E4
:1039E0000CA070470FA0704712A0704715A0704739
:1039F00018A0704754454D50204849474821212080
:103A00002020200054454D50204C4F57212120208C
:103A10002020200048554D49204849474821212071
:103A20002020200048554D49204C4F57212120206F
:103A3000202020004C49474854204441524B20202C
:103A4000202020004F42535441434C452121202047
:103A5000202020004E6F726D616C202020202020DD
:103A60002020200010B5502080F31188BFF34F8F25
:103A7000BFF36F8F02F01AFA18B104494FF080506B
:103A80000860002080F3118810BD000004ED00E004
:103A900030B593B028216846FCF7EAFB14210AA848
:103AA000FCF7E6FB002401200F941094119401040C
:103AB00012948DE8130004904FF4E010CDE9081043
:103AC000022507956846FEF715FA08B172B6FEE7BB
:103AD0000F20CDE90A054FF48060CDE90C400221AA
:103AE0000AA80E94FEF70AF908B172B6FEE7122092
:103AF0000F904FF40040CDE911040FA8FEF788F8AD
:103B0000002801D072B6FEE713B030BD7047000048
:103B10000148FEF758BD0000F8050020F0B5026826
:103B2000164B174C174D4FF08047984205D0B842BE
:103B300003D0A04201D0A84203D122F070064A6807
:103B40003243984205D0B84203D0A04201D0A842E7
:103B500003D122F44074CA6822434C6922F08002E7
:103B6000224302608A68C2620A688262984201D176
:103B70000969016301214161F0BD0000002C014091
:103B8000000400400008004010B5846842EA0322A7
:103B900024F47F440A432243826010BD826822F0ED
:103BA00070020A4342F007018160704730B5036A32
:103BB000026A22F0010202624268846924F07305FD
:103BC0000C682C4323F002058B682B430A4DA84256
:103BD0000BD123F00805CB6822F440722B434D69CA
:103BE00023F0040315438A692A43426084614968CB
:103BF0004163036230BD0000002C014030B5026A11
:103C0000036A23F010030362436884690D6824F497
:103C1000E64444EA05248D6822F0200242EA0512B7
:103C20000B4DA8420ED1CD6822F0800242EA051267
:103C30004D6923F4406343EA85038D6922F0400215
:103C400043EA85034360846149688163026230BD51
:103C5000002C014030B5036A026A22F480720262CD
:103C60004268C46923F4007324F073050C682C4384
:103C70008D6843EA05230C4DA8420ED1CD6823F48C
:103C8000006343EA05234D6922F4405242EA0512DB
:103C90008D6923F4806342EA05124260C461496879
:103CA000C163036230BD0000002C014030B5046ADE
:103CB000026A22F4805202624268C3690D6823F4EA
:103CC000E64343EA05238D6824F4005444EA0534AE
:103CD000064DA84204D14D6922F4804242EA851281
:103CE0004260C36149680164046230BD002C014038
:103CF00010B5036A046A24F001040462846924F0A4
:103D0000F00444EA021423F00A020A4384610262C6
:103D100010BD10B5036A046A24F0100404628469BB
:103D200023F0A00324F4704444EA023243EA011170
:103D30008261016210BD704770B504460068016978
:103D4000E26821F44051114301612169A0680843F0
:103D5000616908432168CA6841F20C639A430243CF
:103D6000CA6020684169A26921F440711143416130
:103D70001E492068884202D1FEF786F801E0FEF76E
:103D800073F800EBC00101EB001260686421800051
:103D9000B2FBF0F3B3FBF1F36FF018067343B2FB21
:103DA000F0F5B2FBF0F605EB8305322303EB0515C6
:103DB000B5FBF1F5B6FBF1F605F0F00505EB0615E0
:103DC000B2FBF0F6B2FBF0F0B0FBF1F06FF01802CE
:103DD000504306EB800003EB0010B0FBF1F02168CC
:103DE00000F00F002844886070BD000000380140DA
:103DF0002DE9F041984617460E460446069D27E0F9
:103E0000681C25D02DB1FDF73FFBA0EB0800A842B0
:103E10001ED920680C3050E8001F21F4D07140E812
:103E20000012002AF5D12068143050E8001F21F05C
:103E3000010140E80012002AF5D1202084F8410059
:103E400084F84200002084F840000320BDE8F0819F
:103E50002068006836EA000004D00020B842CFD0C5
:103E60000020F3E70120F9E70020704700207047A9
:103E7000012120F8401F0021018081800182084635
:103E8000704730F8401F21F43F4101800020704707
:103E900000207047FEE700000FB4054B10B503A9E2
:103EA000044A029800F03CF810BC5DF814FB0000D6
:103EB00071420008080100200FB4084B10B504A996
:103EC00002AA039800F02CF8044602A9002000F092
:103ED000C8F9204610BC5DF814FB000063420008DE
:103EE0000907090E002804DB00F1E02080F8001427
:103EF000704700F00F0000F1E02080F8141D7047BB
:103F000002E008C8121F08C1002AFAD170477047A2
:103F1000002001E001C1121F002AFBD17047000000
:103F20002DE9FF4F8BB088460546002606E0252880
:103F30000BD0DDE90D1290476D1C761C2878002807
:103F4000F5D10FB03046BDE8F08F0024A146A2465F
:103F50000122AE4900E0044315F8013F203B02FA7C
:103F600003F00842F7D128782A2810D06FF02F02EA
:103F70002878A0F13001092915D809EB890102EB55
:103F8000410144F0020400EB01096D1CF0E758F810
:103F9000041B5FEA010903D544F40054C9F1000988
:103FA00044F002046D1C28782E2817D115F8010F53
:103FB00044F004042A280ED06FF02F022878A0F1D4
:103FC000300109290AD80AEB8A0102EB410100EB12
:103FD000010A6D1CF2E758F804AB6D1C28786C28B8
:103FE0000FD006DC4C2817D068280DD06A2814D1D1
:103FF00004E0742810D07A280FD10DE044F40014A6
:104000000AE044F4801401E044F4401469788142E9
:1040100002D104F580146D1C6D1C2878692865D0C8
:1040200006DC00288DD0632827D0642806D15DE007
:104030006E2808D073282AD0752877D0DDE90D12B4
:104040009047761CE0E0C4F30250022809D0032810
:104050000DD0D8F8001004280DD00E6008F1040827
:10406000D2E0D8F80010F217C1E90062F6E7D8F8FC
:1040700000100E80F2E70E70F0E718F8041B8DF8C0
:10408000001000208DF80100EB46012003E058F8F5
:1040900004BB4FF0FF3061074FF0000701D40AE086
:1040A0007F1C57450DDA8742FADB1BF80710002901
:1040B000F6D106E07F1C8742FCDB1BF807100029C5
:1040C000F8D1DDE90D23A9EB07008146214600F078
:1040D000B1F83044C61904E0DDE90D121BF8010BFC
:1040E00090477F1EF8D22146484688E058F8040BD6
:1040F000C4F302514FF00A0B032900D100B2042986
:1041000000D140B2002802DA40422D2102E0210510
:1041100005D52B218DF82410012104E006E0E107EC
:1041200010D02021F6E708AF089113E058F8040BEF
:10413000C4F302514FF00A0B032900D180B20429C5
:1041400000D1C0B20021EEE75946FCF79CF83031AF
:1041500007F8011D0028F7D1ADEB070000F1200B97
:10416000600702D524F4803401E04FF0010ADA45FB
:1041700002DDAAEB0B0000E00020824600EB0B0101
:1041800008980144A9EB01000A90E00306D4DDE998
:104190000D2321460A9800F04DF806444FF000091F
:1041A00008E009A911F80900DDE90D12904709F1AD
:1041B0000109761C08998945F3DBE0030CD5DDE99C
:1041C0000D2321460A9800F035F8064404E0DDE9A5
:1041D0000D1230209047761CBAF10001AAF1010AB5
:1041E000F5DC05E0DDE90D1217F8010B9047761CB0
:1041F000BBF10001ABF1010BF4DC0A982146DDE9CB
:104200000D2300F005F806446D1C97E6092801000F
:104210002DE9F041044600251E461746880404D4C3
:1042200005E039462020B0476D1C641EF9D52846AC
:10423000BDE8F0812DE9F041044600251E46904678
:10424000C80301D5302700E02027880404D505E005
:1042500041463846B0476D1C641EF9D52846BDE876
:10426000F0810A68531C0B601070704770470000A3
:1042700013B505484FF4FA73012269460068FEF74A
:10428000EBFB00981CBD0000E800002010B500F01A
:1042900005FD4FF47A720023FBF790FF10BDFDF788
:1042A00021FBFFF7F5FBFEF79FFFFFF74DF8FEF749
:1042B0003FFFFFF769F8FFF7A9F9FFF789F8FFF764
:1042C000EFF8FFF74BF9FFF785F900F013F8FEF769
:1042D00057FF00F02BF8FEE770B5054600244FF4B9
:1042E0007A7603E0304600F0FBFC641CAC42F9DB5C
:1042F00070BD0000EFF3058058B9EFF3108040B9AE
:1043000009490868022801D030B109E0EFF31180B3
:1043100030B16FF005007047012008600020704741
:104320004FF0FF30704700006C00002010B5EFF335
:10433000058060B9EFF3108048B90B49086802287E
:1043400002D0012806D00BE0EFF3118040B16FF0EE
:10435000050010BD0220086000F0BCFF002010BD69
:104360004FF0FF3010BD00006C0000202DE9F0413F
:10437000134C0F46054666692068001D00F000FDDD
:10438000681C07D137B12168BDE8F0410D48091D0F
:1043900000F049BD20683544B5424560216805D22A
:1043A000A068BDE8F041091D00F025BD6068091D49
:1043B00000F021FD206B854200D22563BDE8F0812D
:1043C00014000020300B00202DE9F041054600F0DC
:1043D00037FD2D4C2069401C206120682B4F10B107
:1043E000E06930B32BE025602069012827D1002641
:1043F00006EB860007EB800000F0EFFC761C382E01
:10440000F6D3234800F0E9FC2148143000F0E5FC25
:104410001F48283000F0E1FC1D483C3000F0DDFC76
:104420001B48503000F0D9FC194860601430A0607F
:1044300005E02068E96AC06A884200D82560E06A21
:10444000401CE0626864E86AA169884200D9A06102
:1044500000EB800007EB8000291D00F0E4FC00F079
:104460000FFDE06900280CD02068E96AC06A884224
:1044700007D208494FF080500860BFF34F8FBFF359
:104480006F8FBDE8F081000014000020800600203E
:10449000E00A002004ED00E038B500F0D1FC104C3B
:1044A000A068C8B90F4800F098FC0E48143000F01E
:1044B00094FC0C482060143060600A4B00202833C4
:1044C000009003F1540210210A2001F060F8A0606E
:1044D00010B105A100F052FDBDE8384000F0D0BC9D
:1044E00058000020440B0020546D72510000000061
:1044F00030B4026C0B46002A0BD0C1681144C16075
:104500004468A14201D30168C16030BC1846FBF782
:1045100096BE30BC70472DE9F041856B17460446C6
:104520000026026C82B1C7B1E068FBF788FEE16843
:10453000206C091AE1602268914202D26168081A6F
:10454000E060022F16D017E02068A8B9606801F07B
:1045500011FD0646002060600EE0A068FBF76FFECC
:10456000216CA0680844A0606168884204D3206878
:10457000A06001E005B16D1E6D1CA5633046BDE86D
:10458000F08110B5044690F85D0058B101280CD0B8
:1045900002280FD0502080F31188BFF34F8FBFF354
:1045A0006F8FFEE7206B00F07FFC2046BDE81040D7
:1045B00000F07ABC10BD00000F4842F6E0614207EF
:1045C00005D0C01D0C4A20F00700821A891A0B4A38
:1045D00000230144C2E900030839103A21F0070121
:1045E00011604B600B600B1AC0E9001393604FF031
:1045F00000405360D06070472013002080000020EE
:10460000154E164CA6F29C474FF08058DFF850909C
:1046100012E000BF00F014FCF068C568281D00F02F
:10462000AFFB2069401E2061E068401EE06000F0A2
:1046300027FC2846FFF7A5FFE0680028EAD1386884
:10464000012805D9C9F80080BFF34F8FBFF36F8FE2
:1046500000F0C0FBF0E700001C0B0020140000205D
:1046600004ED00E0002807D00021416001600B4606
:104670000A46C16001F002B87047000070B51D46DF
:10468000049C61B1C4F80020C4E90F010121204657
:1046900000F0B0FF84F850500020A06470BD24608A
:1046A000F2E72DE9F0470E46DDE909841746824618
:1046B00091009946089DA522206BFBF7D2FD6FF073
:1046C0000301206B01EB8701084420F007077807FE
:1046D00007D0502080F31188BFF34F8FBFF36F8F47
:1046E000FEE72218315C82F83410315C11B1401CB5
:1046F0001028F6D3002684F84360382D00D33725E0
:10470000E562C4E91356201D00F072FB04F11800A5
:1047100000F06EFB2461C5F138006462A06166653B
:10472000A66584F85C604A465146384600F0A4FA13
:104730002060B8F1000F01D0C8F80040BDE8F08754
:104740002DE9F0471E46DDE9089417460D00804626
:104750000ED0002C14D0FFF79FFEC4F80080C4E9EF
:104760000657C4E90869201DBDE8F04700F040BBCA
:10477000502080F31188BFF34F8FBFF36F8FFEE798
:10478000BDE8F08730B5114900E011460A68824261
:10479000FBD34B685C18844203D1406818444860DE
:1047A000084643681C18944209D1084C103C246800
:1047B000A24209D052681A4442600A681268026034
:1047C000814200D0086030BD0460F9E7800000201D
:1047D00070B5002441600B4D0061914206D8D11A9A
:1047E0008269914206D2011D686807E09A4203D2AD
:1047F000994201D3012403E0011D286800F0FBFA6F
:10480000204670BD5800002010B5044600F018FB8B
:10481000A06B28B15FF0000400F032FB204610BD11
:104820000124F9E773B500260098846C5CB1A26B93
:10483000E06B82420FD3502080F31188BFF34F8F7B
:10484000BFF36F8FFEE7502080F31188BFF34F8FC7
:10485000BFF36F8FFEE7A26B82420CD294F94550F2
:104860000A4669462046FFF756FE0646681C04D0F5
:104870006D1C84F8455030467CBD606A0028FAD033
:1048800004F1240001F0F2FB0028F4D00126F2E745
:1048900030B589B0304D55E00498002806DADDE9DE
:1048A0000601059A9047049800284BDB069C606936
:1048B00010B1201D00F064FA02A800F0B9F8024619
:1048C00004980A283ED2DFE800F00505053D2637AA
:1048D00005053D260598A169034601442046FFF7DA
:1048E00077FF00B3616A20468847E069012829D133
:1048F000002000900598A16900234218194620461F
:1049000001F098FC78B9502080F31188BFF34F8FE5
:10491000BFF36F8FFEE70598A06128B18118134699
:104920002046FFF755FF0DE0502080F31188BFF3BC
:104930004F8FBFF36F8FFEE794F82C0010B920461D
:1049400000F0B2FA002204A9A86801F04DF800288E
:10495000A2D109B030BD0000580000202DE9FC4173
:104960000F46054600F0FCFC01A800F061F8044683
:10497000019818B101F0B2FBBDE8FC81224EAFB145
:1049800070680068A8B30027291B3A46B06800F099
:1049900009FB01F0A3FB0028EED11C494FF0805029
:1049A0000860BFF34F8FBFF36F8FE5E7A542EBD8E9
:1049B00001F094FB30682746C068C468201D00F0F1
:1049C000DFF9E069012810D1A0692B4641193A4668
:1049D0002046FFF7FDFE40B100200346014600904F
:1049E0002A46204601F026FC20B1616A204688470D
:1049F000C2E707E0502080F31188BFF34F8FBFF369
:104A00006F8FFEE70127BFE75800002004ED00E0AC
:104A100006484168096829B14168C968C968496898
:104A2000016370474FF0FF31FAE7000014000020E7
:104A300070B5054601F034FA064E044630698442EA
:104A400003D200F009F8012000E000202860204691
:104A5000346170BD58000020F8B5194D1FE0C068E2
:104A6000C4680668201D00F08BF9616A20468847FB
:104A7000E069012813D1A0693044B04206D924610D
:104A80006060211D286800F0B6F908E000200346A8
:104A9000014600903246204601F0CCFB38B1286830
:104AA00001680029DBD16968C5E90010F8BD502014
:104AB00080F31188BFF34F8FBFF36F8FFEE70000C5
:104AC0005800002008484068401C4FF0500080F318
:104AD000118804D0BFF34F8FBFF36F8FFEE7BFF392
:104AE0004F8FBFF36F8FFEE788000020074C2068D0
:104AF000016841B1C0680021D0F80000FFF72EFF27
:104B0000FFF7C6FEF3E701210020F7E75800002079
:104B10002DE9F041044600F093F994F9455004F171
:104B2000240610E0A06C20B100212046FFF77AFE99
:104B300004E0606A48B1304601F098FA08B100F02C
:104B40000FFB6D1E6DB2002DECDC4FF0FF3684F8CC
:104B5000456000F095F900F073F994F9445004F1C0
:104B6000100709E0206948B1384601F07FFA08B122
:104B700000F0F6FA6D1E6DB2002DF3DC84F844608F
:104B8000BDE8F04100F07CB92DE9F0410546002771
:104B900000F0E6FB314E306808B9FFF70DFDF06814
:104BA00005424BD1C5B3083568070ED005F00700A4
:104BB000C0F108000544680707D0502080F3118831
:104BC000BFF34F8FBFF36F8FFEE72DB37068854241
:104BD00034D82248103001460C6801E020460C46CB
:104BE0006168A94202D221680029F7D131688C425C
:104BF00024D007682168016060680837411B1029CC
:104C00000FD96019420708D0502080F31188BFF3F4
:104C10004F8FBFF36F8FFEE710E041606560FFF7D5
:104C2000B1FD61687068401A7060B268904200D24D
:104C3000B060F06801430020C4E9000101F04EFAC1
:104C4000780707D0502080F31188BFF34F8FBFF350
:104C50006F8FFEE73846BDE8F0810000700000204D
:104C60000449086818B10868026D521C026508689A
:104C7000704700001400002010B5031F4FF080742F
:104C80001C601B1F21F001011960191F024B0B60F2
:104C9000143940380A6010BDC54A00082DE9F041BA
:104CA0000D4CFCF7F1FB22680023516AD26A0B4DD0
:104CB000A0FB054703FB057500FB0355074FA1FB50
:104CC000070C03FB07C701FB0371FBF777FA001919
:104CD0006941BDE8F0810000F805002040420F0066
:104CE00030B50C4A00211368DC6A4FF47A726043D5
:104CF000B0FBF2F55A6A586A9042FCD002D9A0EB98
:104D0000020202E0A4EB0202024411440246A9425C
:104D1000F1D330BDF805002070B50C46064600F012
:104D20008FF8154D2868806D80B92968012081F8B9
:104D30005C005CB101212046FFF718FB0F494FF0E2
:104D400080500860BFF34F8FBFF36F8F00F098F86B
:104D500000F076F82868846D002034B116B1296817
:104D6000886502E02A68611E9165296881F85C0007
:104D700000F086F8204670BD1400002004ED00E02D
:104D8000D0E9013201699A60D0E901235A604A688A
:104D9000824201D182684A60002202610868401E96
:104DA0000860086870470000034B036003F160006F
:104DB0000860802010607047600C0020044B036086
:104DC00003F1600008604FF48070106070470000CD
:104DD000C00E0020704700F009BB00F108014FF041
:104DE000FF32C0E90112C16001610021016070471A
:104DF00000210161704730B50B685A1C02D000F1E8
:104E0000080202E0026904E02246546825689D42D7
:104E1000FAD953684B6099608A60516008610168F3
:104E2000491C016030BD42684A6093688B6093689A
:104E30005960916008610168491C01607047000079
:104E4000502080F31188BFF34F8FBFF36F8F0A4953
:104E50004868401C486001280CD10848006810F0E0
:104E6000FF0F07D0502080F31188BFF34F8FBFF39F
:104E70006F8FFEE7704700008800002004ED00E01F
:104E80000849486828B1401E486001D180F3118864
:104E90007047502080F31188BFF34F8FBFF36F8F9F
:104EA000FEE700008800002070B5002827D0144DD0
:104EB000A0F108046168E868014207D1502080F33E
:104EC0001188BFF34F8FBFF36F8FFEE722683AB1AF
:104ED000502080F31188BFF34F8FBFF36F8FFEE731
:104EE0008143616000F03CFA60686968084468606A
:104EF0002046FFF747FCBDE8704001F0EFB870BDF9
:104F0000700000204FF0E02000210161816105491F
:104F10004FF47A720968B1FBF2F1491E4161072131
:104F2000016170471000002010B5FBF731F91149FD
:104F300010280ED300F1E02090F8F0030A78904298
:104F400007D2502080F31188BFF34F8FBFF36F8FCC
:104F5000FEE709480068896800F4E060884207D9E4
:104F6000502080F31188BFF34F8FBFF36F8FFEE7A0
:104F700010BD0000880000200CED00E010B5084BCB
:104F8000002200BF53F832401CB1521C082AF9D34A
:104F900010BD43F8321003EBC201486010BD0000A1
:104FA0004006002070B515460E460446FFF748FF40
:104FB00094F944100020491C01D184F8440094F96C
:104FC0004510491C01D184F84500FFF759FFA06B3B
:104FD00028B92A46314604F1240000F0DFF82046C3
:104FE000BDE87040FFF794BD10B5020014D00F4823
:104FF000806B38B1502080F31188BFF34F8FBFF31F
:105000006F8FFEE700F0ACF900211046FFF7AEF914
:1050100001F064F8002807D105494FF0805008607E
:10502000BFF34F8FBFF36F8F10BD0000140000203F
:1050300004ED00E070B50D4604000BD095B11E4A9A
:10504000906BB8B1502080F31188BFF34F8FBFF33E
:105050006F8FFEE7502080F31188BFF34F8FBFF3AF
:105060006F8FFEE7502080F31188BFF34F8FBFF39F
:105070006F8FFEE700F074F9526923685919934263
:1050800004D98B420AD9914202D807E08B42FAD95F
:10509000881A21600021FFF769F900E0216001F022
:1050A0001DF8002807D105494FF080500860BFF374
:1050B0004F8FBFF36F8F70BD1400002004ED00E030
:1050C00070B50546FFF7BCFE1E4C05B92568281DC6
:1050D000FFF756FEA86A18B105F11800FFF750FE59
:1050E000E06A401CE0622068854207D1291D16480D
:1050F000FFF799FEE068401CE06007E02069401E71
:1051000020612846FFF73DFAFFF782FCFFF7B8FE63
:10511000E069002814D02068854211D1A06B38B115
:10512000502080F31188BFF34F8FBFF36F8FFEE7DE
:1051300006494FF080500860BFF34F8FBFF36F8F69
:1051400070BD0000140000201C0B002004ED00E0E6
:1051500002498A6A02604969416070471400002070
:1051600001490120486270471400002010B50C4628
:1051700050B1094909681831FFF73DFE2046BDE8E6
:1051800010400121FFF7F2B8502080F31188BFF3DF
:105190004F8FBFF36F8FFEE71400002070B51446E9
:1051A0000D4668B10A4909681831FFF73CFE0CB199
:1051B0004FF0FF3521462846BDE87040FFF7D6B8CE
:1051C000502080F31188BFF34F8FBFF36F8FFEE73E
:1051D0001400002070B504003ED0226DA2B1E06C36
:1051E000884200D30146E06A884235D0012A33D193
:1051F0001A4D2A6894420FD1502080F31188BFF3D2
:105200004F8FBFF36F8FFEE7502080F31188BFF3FD
:105210004F8FBFF36F8FFEE7E162A269002A02DBC6
:10522000C1F13801A1610E4E00EB8000616906EB0F
:105230008000814210D1201DFFF7A2FDE06AA9691C
:10524000884200D9A86100EB800006EB8000211D98
:10525000BDE87040FFF7E7BD70BD000014000020FE
:105260008006002070B5194DAA6BF2B141F00041E3
:105270000160C4680CB3FFF783FD201DFFF780FDBC
:10528000E06AA969884200D9A861114900EB800051
:1052900001EB8000211DFFF7C6FDE06A2968C96A9D
:1052A000884201D90120686270BD502080F31188C6
:1052B000BFF34F8FBFF36F8FFEE7502080F311884D
:1052C000BFF34F8FBFF36F8FFEE700001400002085
:1052D0008006002030B587B00024039405AA04A9F5
:1052E00003A80494FFF760FDDDE903010094CDE914
:1052F0000110002316A11848059A00F034FD174D3F
:105300000028686321D000F065FF012809D0401C07
:105310001BD1502080F31188BFF34F8FBFF36F8FE5
:10532000FEE7502080F31188BFF34F8FBFF36F8FDC
:105330004FF0FF3028630120E8616C61FEF796FFB3
:1053400007B0BDE8304000F09FB807B030BD0000A6
:1053500049444C45000000000146000814000020AC
:105360000248816B491C81637047000014000020D3
:1053700010B51C4CA06B10B10120606210BD002064
:105380006062FEF783FF2064E26B904204D92168DB
:10539000821A4B6D1A444A65E063A069124901E024
:1053A000B8B1401E00EB800251F82220002AF7D04D
:1053B00000EB800201EB820101F108034A685268A8
:1053C0004A609A4201D152684A60D1682160A06166
:1053D00010BD502080F31188BFF34F8FBFF36F8F44
:1053E000FEE7000014000020800600202DE9F041B7
:1053F0000027884604000AD05FEA18600FD05020CA
:1054000080F31188BFF34F8FBFF36F8FFEE75020FB
:1054100080F31188BFF34F8FBFF36F8FFEE7261D18
:1054200004F10C05FFF79CFF2168F06841EA0801D0
:10543000216017E0D0E9001601F07F425301236894
:1054400021F07F4102D40B4203D10AE031EA030389
:1054500007D1D20100D50F43216841F00071FFF759
:1054600001FF3046A842E5D12068B843206000F033
:1054700035FE2068BDE8F08113460A460146014822
:1054800000F00CBFD74D00081CB5264908780190E4
:10549000FF20087008788DF800009DF800009DF846
:1054A000002000F0F000904207D0502080F31188D7
:1054B000BFF34F8FBFF36F8FFEE79DF800001A4BCD
:1054C00000F0500018700720986005E09DF800205B
:1054D00052008DF80020401E9DF800201206F5D4E1
:1054E0009860032807D0502080F31188BFF34F8FB6
:1054F000BFF36F8FFEE74FF440709860019808701B
:105500000A48016841F470010160016841F070418E
:105510000160FFF7F7FC00205860FAF703FE002057
:105520001CBD000000E400E08800002020ED00E049
:1055300010B502460021012000F005F80446FFF7EF
:1055400091F8204610BDF8B517460E46050014D058
:10555000DEB105FB06F05430FFF716FB04000AD05D
:10556000002084F8460004F154023B4631462846A8
:105570000094FFF783F82046F8BD502080F311888F
:10558000BFF34F8FBFF36F8FFEE70020E3E738B51F
:10559000049D18B153B1CAB181B120E0502080F30D
:1055A0001188BFF34F8FBFF36F8FFEE7502080F35A
:1055B0001188BFF34F8FBFF36F8FFEE7502080F34A
:1055C0001188BFF34F8FBFF36F8FFEE739B15020C3
:1055D00080F31188BFF34F8FBFF36F8FFEE7542422
:1055E0001C46012384F846302B460094FFF746F80A
:1055F000204638BD70B50D46040025D0FFF720FCCD
:10560000D4E90F20216802FB001161600021A16331
:105610002168A1600A46D4E90F01401E00FB012168
:10562000E16021464FF0FF3001F8440F487004F16B
:1056300010008DB1FFF7D1FB04F12400FFF7CDFB83
:10564000FFF71EFC012070BD502080F31188BFF3CE
:105650004F8FBFF36F8FFEE721690029F0D000F074
:1056600005FD0028ECD004494FF080500860BFF3DE
:105670004F8FBFF36F8FE3E704ED00E02DE9FF47A5
:1056800082B01D468A464FF00008040003D0BAF1EC
:10569000000F08D011E0502080F31188BFF34F8F26
:1056A000BFF36F8FFEE7206C38B1502080F3118874
:1056B000BFF34F8FBFF36F8FFEE7022D0AD1E06B70
:1056C000012807D0502080F31188BFF34F8FBFF31C
:1056D0006F8FFEE700F0D6FB424F4FF000094FF00E
:1056E000805648B9049838B1502080F31188BFF330
:1056F0004F8FBFF36F8FFEE7FFF7A2FBA06BE16B4D
:10570000884207D3022D05D0049808B3B8F1000FE2
:1057100021D025E02A4651462046FEF7FCFEA16C2A
:1057200021B129462046FFF77DF805E0616A19B1ED
:1057300004F1240000F09AFC20B13E60BFF34F8FCB
:10574000BFF36F8FFFF79CFB012006B0BDE8F08729
:10575000FFF796FB22E06846FFF7FAFC4FF00108DE
:10576000FFF78EFBFFF7FCFDFFF76AFB94F944009F
:10577000401C01D184F8449094F94500401C01D1AB
:1057800084F84590FFF77CFB04A9684600F084FA92
:1057900030B12046FFF7BCF900F0A0FC0020D4E7B0
:1057A000FFF74EFBA06BE16B884213D1FFF768FB5C
:1057B00004F110000499FFF7D9FC2046FFF7A8F97F
:1057C00000F08CFC002897D13E60BFF34F8FBFF3F1
:1057D0006F8F91E7FFF754FB2046FFF799F900F030
:1057E0007DFC89E704ED00E02DE9F0479846174677
:1057F0008946040003D0B9F1000F08D011E0502011
:1058000080F31188BFF34F8FBFF36F8FFEE7206CDB
:1058100038B1502080F31188BFF34F8FBFF36F8FE3
:10582000FEE7B8F1020F0AD1E06B012807D0502043
:1058300080F31188BFF34F8FBFF36F8FFEE7FFF741
:1058400073FB5020EFF3118680F31188BFF34F8F65
:10585000BFF36F8FA06BE16B884207D3B8F1020FE3
:1058600004D0002086F31188BDE8F08794F94550F4
:10587000424649462046FEF74EFE681C04D06D1C89
:1058800084F845500120EDE7A06C012520B1414688
:105890002046FEF7C7FF06E0606A0028F2D004F158
:1058A000240000F0E3FB0028ECD0002FEAD03D609C
:1058B000E8E700002DE9F743002582B0894604009F
:1058C00003D0B9F1000F08D011E0502080F3118807
:1058D000BFF34F8FBFF36F8FFEE7206C38B15020BE
:1058E00080F31188BFF34F8FBFF36F8FFEE700F097
:1058F000C9FA3C4F4FF000084FF0805648B9049861
:1059000038B1502080F31188BFF34F8FBFF36F8FF2
:10591000FEE7FFF795FAA06BB8B149462046E56867
:10592000FEF7E6FDE560606A48B104F1240000F08E
:105930009DFB20B13E60BFF34F8FBFF36F8FFFF72A
:105940009FFA012005B0BDE8F083049808B11DB1AD
:1059500006E0FFF795FA27E06846FFF7F9FB012517
:10596000FFF78EFAFFF7FCFCFFF76AFA94F94400A0
:10597000401C01D184F8448094F94500401C01D1B9
:1059800084F84580FFF77CFA04A9684600F084F9A2
:10599000002820460AD0FFF7BBF800F09FFB204606
:1059A000FEF732FF0028B4D00020CBE7FEF72CFF33
:1059B00088B104F124000499FFF7D8FB2046FFF7D3
:1059C000A7F800F08BFB0028A3D13E60BFF34F8FF8
:1059D000BFF36F8F9DE72046FFF79AF800F07EFB3C
:1059E00097E7000004ED00E02DE9F747002683B0BB
:1059F0008A46040003D0BAF1000F08D011E050200D
:105A000080F31188BFF34F8FBFF36F8FFEE7206CD9
:105A100038B1502080F31188BFF34F8FBFF36F8FE1
:105A2000FEE700F02FFADFF8F4804FF000094FF0A6
:105A3000805748B9059838B1502080F31188BFF3DA
:105A40004F8FBFF36F8FFEE7FFF7FAF9A56BC5B174
:105A500051462046FEF74CFD6D1EA563206950B1EE
:105A600004F1100000F002FB28B1C8F80070BFF389
:105A70004F8FBFF36F8FFFF703FA012006B0BDE829
:105A8000F087059808B11EB106E0FFF7F9F927E0A5
:105A90006846FFF75DFB0126FFF7F2F9FFF760FCB0
:105AA000FFF7CEF994F94400401C01D184F84490EA
:105AB00094F94500401C01D184F84590FFF7E0F9C6
:105AC00005A9684600F0E8F8002820460AD0FFF74C
:105AD0001FF800F003FB2046FEF796FE0028B3D027
